{
  "_format": "hh-sol-artifact-1",
  "contractName": "BookLibrary",
  "sourceName": "contracts/BookLibrary.sol",
  "abi": [
    {
      "inputs": [
        {
          "internalType": "address",
          "name": "_address",
          "type": "address"
        }
      ],
      "stateMutability": "nonpayable",
      "type": "constructor"
    },
    {
      "anonymous": false,
      "inputs": [
        {
          "indexed": true,
          "internalType": "address",
          "name": "_address",
          "type": "address"
        },
        {
          "indexed": false,
          "internalType": "uint256",
          "name": "bookId",
          "type": "uint256"
        },
        {
          "indexed": false,
          "internalType": "uint256",
          "name": "price",
          "type": "uint256"
        },
        {
          "indexed": false,
          "internalType": "string",
          "name": "title",
          "type": "string"
        }
      ],
      "name": "BookBorrow",
      "type": "event"
    },
    {
      "anonymous": false,
      "inputs": [
        {
          "indexed": true,
          "internalType": "address",
          "name": "_address",
          "type": "address"
        },
        {
          "indexed": false,
          "internalType": "uint256",
          "name": "bookId",
          "type": "uint256"
        },
        {
          "indexed": false,
          "internalType": "uint256",
          "name": "price",
          "type": "uint256"
        },
        {
          "indexed": false,
          "internalType": "string",
          "name": "title",
          "type": "string"
        }
      ],
      "name": "BookRetur",
      "type": "event"
    },
    {
      "anonymous": false,
      "inputs": [
        {
          "indexed": false,
          "internalType": "uint256",
          "name": "_bookId",
          "type": "uint256"
        },
        {
          "indexed": false,
          "internalType": "uint256",
          "name": "_price",
          "type": "uint256"
        },
        {
          "indexed": false,
          "internalType": "uint256",
          "name": "_copies",
          "type": "uint256"
        },
        {
          "indexed": false,
          "internalType": "string",
          "name": "_title",
          "type": "string"
        }
      ],
      "name": "NewBook",
      "type": "event"
    },
    {
      "anonymous": false,
      "inputs": [
        {
          "indexed": true,
          "internalType": "address",
          "name": "previousOwner",
          "type": "address"
        },
        {
          "indexed": true,
          "internalType": "address",
          "name": "newOwner",
          "type": "address"
        }
      ],
      "name": "OwnershipTransferred",
      "type": "event"
    },
    {
      "inputs": [
        {
          "internalType": "uint256",
          "name": "_price",
          "type": "uint256"
        },
        {
          "internalType": "uint256",
          "name": "_copies",
          "type": "uint256"
        },
        {
          "internalType": "string",
          "name": "_title",
          "type": "string"
        }
      ],
      "name": "addBook",
      "outputs": [],
      "stateMutability": "nonpayable",
      "type": "function"
    },
    {
      "inputs": [
        {
          "internalType": "address",
          "name": "_address",
          "type": "address"
        },
        {
          "internalType": "uint256",
          "name": "_bookId",
          "type": "uint256"
        }
      ],
      "name": "addressHasBook",
      "outputs": [
        {
          "internalType": "bool",
          "name": "",
          "type": "bool"
        },
        {
          "internalType": "uint256",
          "name": "",
          "type": "uint256"
        }
      ],
      "stateMutability": "view",
      "type": "function"
    },
    {
      "inputs": [],
      "name": "availableBooks",
      "outputs": [
        {
          "internalType": "uint256[]",
          "name": "",
          "type": "uint256[]"
        }
      ],
      "stateMutability": "view",
      "type": "function"
    },
    {
      "inputs": [
        {
          "internalType": "uint256",
          "name": "_bookId",
          "type": "uint256"
        }
      ],
      "name": "bookHistory",
      "outputs": [
        {
          "internalType": "address[]",
          "name": "",
          "type": "address[]"
        }
      ],
      "stateMutability": "view",
      "type": "function"
    },
    {
      "inputs": [
        {
          "internalType": "uint256",
          "name": "_bookId",
          "type": "uint256"
        },
        {
          "internalType": "uint256",
          "name": "value",
          "type": "uint256"
        },
        {
          "internalType": "uint256",
          "name": "deadline",
          "type": "uint256"
        },
        {
          "internalType": "uint8",
          "name": "v",
          "type": "uint8"
        },
        {
          "internalType": "bytes32",
          "name": "r",
          "type": "bytes32"
        },
        {
          "internalType": "bytes32",
          "name": "s",
          "type": "bytes32"
        }
      ],
      "name": "borrowBook",
      "outputs": [],
      "stateMutability": "nonpayable",
      "type": "function"
    },
    {
      "inputs": [],
      "name": "owner",
      "outputs": [
        {
          "internalType": "address",
          "name": "",
          "type": "address"
        }
      ],
      "stateMutability": "view",
      "type": "function"
    },
    {
      "inputs": [
        {
          "internalType": "bytes32",
          "name": "hashedMessage",
          "type": "bytes32"
        },
        {
          "internalType": "uint8",
          "name": "v",
          "type": "uint8"
        },
        {
          "internalType": "bytes32",
          "name": "r",
          "type": "bytes32"
        },
        {
          "internalType": "bytes32",
          "name": "s",
          "type": "bytes32"
        }
      ],
      "name": "recoverSigner",
      "outputs": [
        {
          "internalType": "address",
          "name": "",
          "type": "address"
        }
      ],
      "stateMutability": "view",
      "type": "function"
    },
    {
      "inputs": [],
      "name": "renounceOwnership",
      "outputs": [],
      "stateMutability": "nonpayable",
      "type": "function"
    },
    {
      "inputs": [
        {
          "internalType": "uint256",
          "name": "_bookId",
          "type": "uint256"
        }
      ],
      "name": "returnBook",
      "outputs": [],
      "stateMutability": "nonpayable",
      "type": "function"
    },
    {
      "inputs": [],
      "name": "testPermit",
      "outputs": [
        {
          "internalType": "uint256",
          "name": "value",
          "type": "uint256"
        },
        {
          "internalType": "uint256",
          "name": "deadline",
          "type": "uint256"
        },
        {
          "internalType": "uint8",
          "name": "v",
          "type": "uint8"
        },
        {
          "internalType": "bytes32",
          "name": "r",
          "type": "bytes32"
        },
        {
          "internalType": "bytes32",
          "name": "s",
          "type": "bytes32"
        }
      ],
      "stateMutability": "nonpayable",
      "type": "function"
    },
    {
      "inputs": [
        {
          "internalType": "address",
          "name": "newOwner",
          "type": "address"
        }
      ],
      "name": "transferOwnership",
      "outputs": [],
      "stateMutability": "nonpayable",
      "type": "function"
    },
    {
      "inputs": [
        {
          "internalType": "uint256",
          "name": "_bookId",
          "type": "uint256"
        }
      ],
      "name": "viewBook",
      "outputs": [
        {
          "components": [
            {
              "internalType": "uint256",
              "name": "price",
              "type": "uint256"
            },
            {
              "internalType": "uint256",
              "name": "copies",
              "type": "uint256"
            },
            {
              "internalType": "string",
              "name": "title",
              "type": "string"
            }
          ],
          "internalType": "struct BookFactory.Book",
          "name": "",
          "type": "tuple"
        }
      ],
      "stateMutability": "view",
      "type": "function"
    }
  ],
  "bytecode": "0x60806040523480156200001157600080fd5b5060405162002a2f38038062002a2f833981810160405281019062000037919062000182565b620000576200004b6200009f60201b60201c565b620000a760201b60201c565b80600460006101000a81548173ffffffffffffffffffffffffffffffffffffffff021916908373ffffffffffffffffffffffffffffffffffffffff16021790555050620001fc565b600033905090565b60008060009054906101000a900473ffffffffffffffffffffffffffffffffffffffff169050816000806101000a81548173ffffffffffffffffffffffffffffffffffffffff021916908373ffffffffffffffffffffffffffffffffffffffff1602179055508173ffffffffffffffffffffffffffffffffffffffff168173ffffffffffffffffffffffffffffffffffffffff167f8be0079c531659141344cd1fd0a4f28419497f9722a3daafe3b4186f6b6457e060405160405180910390a35050565b6000815190506200017c81620001e2565b92915050565b6000602082840312156200019557600080fd5b6000620001a5848285016200016b565b91505092915050565b6000620001bb82620001c2565b9050919050565b600073ffffffffffffffffffffffffffffffffffffffff82169050919050565b620001ed81620001ae565b8114620001f957600080fd5b50565b612823806200020c6000396000f3fe608060405234801561001057600080fd5b50600436106100b45760003560e01c8063a487cd1a11610071578063a487cd1a1461017a578063ae3ab01c146101aa578063ca5140c9146101c8578063d45167d0146101e4578063ec032b6414610214578063f2fde38b14610236576100b4565b80630fa7797f146100b95780635901ecb9146100d557806364f459a1146100f1578063715018a6146101225780638da5cb5b1461012c57806395a1c73a1461014a575b600080fd5b6100d360048036038101906100ce9190611a7e565b610252565b005b6100ef60048036038101906100ea9190611ae5565b61039f565b005b61010b60048036038101906101069190611964565b610743565b604051610119929190612042565b60405180910390f35b61012a61084c565b005b6101346108d4565b6040516101419190611f14565b60405180910390f35b610164600480360381019061015f9190611a2c565b6108fd565b6040516101719190611ffe565b60405180910390f35b610194600480360381019061018f9190611a2c565b61099e565b6040516101a191906121cc565b60405180910390f35b6101b2610aa6565b6040516101bf9190612020565b60405180910390f35b6101e260048036038101906101dd9190611a2c565b610c7a565b005b6101fe60048036038101906101f991906119c9565b610e6b565b60405161020b9190611f14565b60405180910390f35b61021c610f00565b60405161022d959493929190612278565b60405180910390f35b610250600480360381019061024b919061193b565b611099565b005b61025a611191565b73ffffffffffffffffffffffffffffffffffffffff166102786108d4565b73ffffffffffffffffffffffffffffffffffffffff16146102ce576040517f08c379a00000000000000000000000000000000000000000000000000000000081526004016102c59061218c565b60405180910390fd5b6001604051806060016040528085815260200184815260200183815250908060018154018082558091505060019003906000526020600020906003020160009091909190915060008201518160000155602082015181600101556040820151816002019080519060200190610344929190611791565b50505060006001808054905061035a91906123e0565b90507fbfdd38fc5cfcc6776a7969fcb902c85bea0dfaa03bdeb8cae9d1c5463644598a81858585604051610391949392919061222c565b60405180910390a150505050565b856000600182815481106103dc577f4e487b7100000000000000000000000000000000000000000000000000000000600052603260045260246000fd5b9060005260206000209060030201600101541161042e576040517f08c379a00000000000000000000000000000000000000000000000000000000081526004016104259061212c565b60405180910390fd5b60008061043b338a610743565b8092508193505050600015158215151461048a576040517f08c379a0000000000000000000000000000000000000000000000000000000008152600401610481906121ac565b60405180910390fd5b600460009054906101000a900473ffffffffffffffffffffffffffffffffffffffff1673ffffffffffffffffffffffffffffffffffffffff1663d505accf33308b8b8b8b8b6040518863ffffffff1660e01b81526004016104f19796959493929190611f8f565b600060405180830381600087803b15801561050b57600080fd5b505af115801561051f573d6000803e3d6000fd5b505050506105803361052f6108d4565b60018c81548110610569577f4e487b7100000000000000000000000000000000000000000000000000000000600052603260045260246000fd5b906000526020600020906003020160000154611199565b600260003373ffffffffffffffffffffffffffffffffffffffff1673ffffffffffffffffffffffffffffffffffffffff16815260200190815260200160002089908060018154018082558091505060019003906000526020600020016000909190919091505560018981548110610620577f4e487b7100000000000000000000000000000000000000000000000000000000600052603260045260246000fd5b90600052602060002090600302016001016000815480929190610642906124b5565b9190505550610651338a611274565b3373ffffffffffffffffffffffffffffffffffffffff167f5bc4935f49b0937cd4bc65bb50be1b45f7945d9bba11bdd3686f37b6c92005c28a60018c815481106106c4577f4e487b7100000000000000000000000000000000000000000000000000000000600052603260045260246000fd5b90600052602060002090600302016000015460018d81548110610710577f4e487b7100000000000000000000000000000000000000000000000000000000600052603260045260246000fd5b9060005260206000209060030201600201604051610730939291906121ee565b60405180910390a2505050505050505050565b60008060005b600260008673ffffffffffffffffffffffffffffffffffffffff1673ffffffffffffffffffffffffffffffffffffffff1681526020019081526020016000208054905081101561083c5783600260008773ffffffffffffffffffffffffffffffffffffffff1673ffffffffffffffffffffffffffffffffffffffff168152602001908152602001600020828154811061080b577f4e487b7100000000000000000000000000000000000000000000000000000000600052603260045260246000fd5b90600052602060002001541415610829576001819250925050610845565b808061083490612542565b915050610749565b50600080915091505b9250929050565b610854611191565b73ffffffffffffffffffffffffffffffffffffffff166108726108d4565b73ffffffffffffffffffffffffffffffffffffffff16146108c8576040517f08c379a00000000000000000000000000000000000000000000000000000000081526004016108bf9061218c565b60405180910390fd5b6108d260006113e1565b565b60008060009054906101000a900473ffffffffffffffffffffffffffffffffffffffff16905090565b60606003600083815260200190815260200160002080548060200260200160405190810160405280929190818152602001828054801561099257602002820191906000526020600020905b8160009054906101000a900473ffffffffffffffffffffffffffffffffffffffff1673ffffffffffffffffffffffffffffffffffffffff1681526020019060010190808311610948575b50505050509050919050565b6109a6611817565b600182815481106109e0577f4e487b7100000000000000000000000000000000000000000000000000000000600052603260045260246000fd5b90600052602060002090600302016040518060600160405290816000820154815260200160018201548152602001600282018054610a1d906124df565b80601f0160208091040260200160405190810160405280929190818152602001828054610a49906124df565b8015610a965780601f10610a6b57610100808354040283529160200191610a96565b820191906000526020600020905b815481529060010190602001808311610a7957829003601f168201915b5050505050815250509050919050565b60606000805b600180549050811015610b2f57600060018281548110610af5577f4e487b7100000000000000000000000000000000000000000000000000000000600052603260045260246000fd5b9060005260206000209060030201600101541115610b1c578180610b1890612542565b9250505b8080610b2790612542565b915050610aac565b5060008167ffffffffffffffff811115610b72577f4e487b7100000000000000000000000000000000000000000000000000000000600052604160045260246000fd5b604051908082528060200260200182016040528015610ba05781602001602082028036833780820191505090505b5090506000805b600180549050811015610c7057600060018281548110610bf0577f4e487b7100000000000000000000000000000000000000000000000000000000600052603260045260246000fd5b9060005260206000209060030201600101541115610c5d5780838381518110610c42577f4e487b7100000000000000000000000000000000000000000000000000000000600052603260045260246000fd5b6020026020010181815250508180610c5990612542565b9250505b8080610c6890612542565b915050610ba7565b5081935050505090565b600080610c873384610743565b80925081935050506001151582151514610cd6576040517f08c379a0000000000000000000000000000000000000000000000000000000008152600401610ccd9061216c565b60405180910390fd5b610d1e600260003373ffffffffffffffffffffffffffffffffffffffff1673ffffffffffffffffffffffffffffffffffffffff168152602001908152602001600020826114a5565b60018381548110610d58577f4e487b7100000000000000000000000000000000000000000000000000000000600052603260045260246000fd5b90600052602060002090600302016001016000815480929190610d7a90612542565b91905055503373ffffffffffffffffffffffffffffffffffffffff167f4ab34bfbed8825ef551cce5d11e00f522c418399844f3b9d64accc3aad76af208460018681548110610df2577f4e487b7100000000000000000000000000000000000000000000000000000000600052603260045260246000fd5b90600052602060002090600302016000015460018781548110610e3e577f4e487b7100000000000000000000000000000000000000000000000000000000600052603260045260246000fd5b9060005260206000209060030201600201604051610e5e939291906121ee565b60405180910390a2505050565b60008085604051602001610e7f9190611eee565b604051602081830303815290604052805190602001209050600060018287878760405160008152602001604052604051610ebc949392919061206b565b6020604051602081039080840390855afa158015610ede573d6000803e3d6000fd5b505050602060405103519050610ef381611591565b8092505050949350505050565b6000806000806000600460009054906101000a900473ffffffffffffffffffffffffffffffffffffffff1673ffffffffffffffffffffffffffffffffffffffff1663d505accf333088888888886040518863ffffffff1660e01b8152600401610f6f9796959493929190611f8f565b600060405180830381600087803b158015610f8957600080fd5b505af1158015610f9d573d6000803e3d6000fd5b505050506000600460009054906101000a900473ffffffffffffffffffffffffffffffffffffffff1673ffffffffffffffffffffffffffffffffffffffff1663dd62ed3e33306040518363ffffffff1660e01b8152600401611000929190611f2f565b60206040518083038186803b15801561101857600080fd5b505afa15801561102c573d6000803e3d6000fd5b505050506040513d601f19601f820116820180604052508101906110509190611a55565b90506110916040518060400160405280601381526020017f616c6c6f776564202725732720746f6b656e73000000000000000000000000008152508261162a565b509091929394565b6110a1611191565b73ffffffffffffffffffffffffffffffffffffffff166110bf6108d4565b73ffffffffffffffffffffffffffffffffffffffff1614611115576040517f08c379a000000000000000000000000000000000000000000000000000000000815260040161110c9061218c565b60405180910390fd5b600073ffffffffffffffffffffffffffffffffffffffff168173ffffffffffffffffffffffffffffffffffffffff161415611185576040517f08c379a000000000000000000000000000000000000000000000000000000000815260040161117c9061214c565b60405180910390fd5b61118e816113e1565b50565b600033905090565b6111bd6040518060600160405280602b81526020016127c3602b91398484306116c6565b600460009054906101000a900473ffffffffffffffffffffffffffffffffffffffff1673ffffffffffffffffffffffffffffffffffffffff166323b872dd8484846040518463ffffffff1660e01b815260040161121c93929190611f58565b602060405180830381600087803b15801561123657600080fd5b505af115801561124a573d6000803e3d6000fd5b505050506040513d601f19601f8201168201806040525081019061126e91906119a0565b50505050565b60006001905060005b6003600084815260200190815260200160002080549050811015611360578373ffffffffffffffffffffffffffffffffffffffff166003600085815260200190815260200160002082815481106112fd577f4e487b7100000000000000000000000000000000000000000000000000000000600052603260045260246000fd5b9060005260206000200160009054906101000a900473ffffffffffffffffffffffffffffffffffffffff1673ffffffffffffffffffffffffffffffffffffffff16141561134d5760009150611360565b808061135890612542565b91505061127d565b5080156113dc5760036000838152602001908152602001600020839080600181540180825580915050600190039060005260206000200160009091909190916101000a81548173ffffffffffffffffffffffffffffffffffffffff021916908373ffffffffffffffffffffffffffffffffffffffff1602179055505b505050565b60008060009054906101000a900473ffffffffffffffffffffffffffffffffffffffff169050816000806101000a81548173ffffffffffffffffffffffffffffffffffffffff021916908373ffffffffffffffffffffffffffffffffffffffff1602179055508173ffffffffffffffffffffffffffffffffffffffff168173ffffffffffffffffffffffffffffffffffffffff167f8be0079c531659141344cd1fd0a4f28419497f9722a3daafe3b4186f6b6457e060405160405180910390a35050565b81600183805490506114b791906123e0565b815481106114ee577f4e487b7100000000000000000000000000000000000000000000000000000000600052603260045260246000fd5b9060005260206000200154828281548110611532577f4e487b7100000000000000000000000000000000000000000000000000000000600052603260045260246000fd5b906000526020600020018190555081805480611577577f4e487b7100000000000000000000000000000000000000000000000000000000600052603160045260246000fd5b600190038181906000526020600020016000905590555050565b611627816040516024016115a59190611f14565b6040516020818303038152906040527f2c2ecbc2000000000000000000000000000000000000000000000000000000007bffffffffffffffffffffffffffffffffffffffffffffffffffffffff19166020820180517bffffffffffffffffffffffffffffffffffffffffffffffffffffffff8381831617835250505050611768565b50565b6116c282826040516024016116409291906120fc565b6040516020818303038152906040527f9710a9d0000000000000000000000000000000000000000000000000000000007bffffffffffffffffffffffffffffffffffffffffffffffffffffffff19166020820180517bffffffffffffffffffffffffffffffffffffffffffffffffffffffff8381831617835250505050611768565b5050565b611762848484846040516024016116e094939291906120b0565b6040516020818303038152906040527fed8f28f6000000000000000000000000000000000000000000000000000000007bffffffffffffffffffffffffffffffffffffffffffffffffffffffff19166020820180517bffffffffffffffffffffffffffffffffffffffffffffffffffffffff8381831617835250505050611768565b50505050565b60008151905060006a636f6e736f6c652e6c6f679050602083016000808483855afa5050505050565b82805461179d906124df565b90600052602060002090601f0160209004810192826117bf5760008555611806565b82601f106117d857805160ff1916838001178555611806565b82800160010185558215611806579182015b828111156118055782518255916020019190600101906117ea565b5b5090506118139190611838565b5090565b60405180606001604052806000815260200160008152602001606081525090565b5b80821115611851576000816000905550600101611839565b5090565b6000611868611863846122f0565b6122cb565b90508281526020810184848401111561188057600080fd5b61188b848285612473565b509392505050565b6000813590506118a28161274f565b92915050565b6000815190506118b781612766565b92915050565b6000813590506118cc8161277d565b92915050565b600082601f8301126118e357600080fd5b81356118f3848260208601611855565b91505092915050565b60008135905061190b81612794565b92915050565b60008151905061192081612794565b92915050565b600081359050611935816127ab565b92915050565b60006020828403121561194d57600080fd5b600061195b84828501611893565b91505092915050565b6000806040838503121561197757600080fd5b600061198585828601611893565b9250506020611996858286016118fc565b9150509250929050565b6000602082840312156119b257600080fd5b60006119c0848285016118a8565b91505092915050565b600080600080608085870312156119df57600080fd5b60006119ed878288016118bd565b94505060206119fe87828801611926565b9350506040611a0f878288016118bd565b9250506060611a20878288016118bd565b91505092959194509250565b600060208284031215611a3e57600080fd5b6000611a4c848285016118fc565b91505092915050565b600060208284031215611a6757600080fd5b6000611a7584828501611911565b91505092915050565b600080600060608486031215611a9357600080fd5b6000611aa1868287016118fc565b9350506020611ab2868287016118fc565b925050604084013567ffffffffffffffff811115611acf57600080fd5b611adb868287016118d2565b9150509250925092565b60008060008060008060c08789031215611afe57600080fd5b6000611b0c89828a016118fc565b9650506020611b1d89828a016118fc565b9550506040611b2e89828a016118fc565b9450506060611b3f89828a01611926565b9350506080611b5089828a016118bd565b92505060a0611b6189828a016118bd565b9150509295509295509295565b6000611b7a8383611b9e565b60208301905092915050565b6000611b928383611ec1565b60208301905092915050565b611ba781612414565b82525050565b611bb681612414565b82525050565b6000611bc782612356565b611bd18185612391565b9350611bdc83612321565b8060005b83811015611c0d578151611bf48882611b6e565b9750611bff83612377565b925050600181019050611be0565b5085935050505092915050565b6000611c2582612361565b611c2f81856123a2565b9350611c3a83612331565b8060005b83811015611c6b578151611c528882611b86565b9750611c5d83612384565b925050600181019050611c3e565b5085935050505092915050565b611c8181612426565b82525050565b611c9081612432565b82525050565b611ca7611ca282612432565b61258b565b82525050565b6000611cb88261236c565b611cc281856123b3565b9350611cd2818560208601612482565b611cdb81612622565b840191505092915050565b6000611cf18261236c565b611cfb81856123c4565b9350611d0b818560208601612482565b611d1481612622565b840191505092915050565b60008154611d2c816124df565b611d3681866123c4565b94506001821660008114611d515760018114611d6357611d96565b60ff1983168652602086019350611d96565b611d6c85612341565b60005b83811015611d8e57815481890152600182019150602081019050611d6f565b808801955050505b50505092915050565b6000611dac601c836123d5565b9150611db782612633565b601c82019050919050565b6000611dcf6011836123c4565b9150611dda8261265c565b602082019050919050565b6000611df26026836123c4565b9150611dfd82612685565b604082019050919050565b6000611e156019836123c4565b9150611e20826126d4565b602082019050919050565b6000611e386020836123c4565b9150611e43826126fd565b602082019050919050565b6000611e5b601d836123c4565b9150611e6682612726565b602082019050919050565b6000606083016000830151611e896000860182611ec1565b506020830151611e9c6020860182611ec1565b5060408301518482036040860152611eb48282611cad565b9150508091505092915050565b611eca8161245c565b82525050565b611ed98161245c565b82525050565b611ee881612466565b82525050565b6000611ef982611d9f565b9150611f058284611c96565b60208201915081905092915050565b6000602082019050611f296000830184611bad565b92915050565b6000604082019050611f446000830185611bad565b611f516020830184611bad565b9392505050565b6000606082019050611f6d6000830186611bad565b611f7a6020830185611bad565b611f876040830184611ed0565b949350505050565b600060e082019050611fa4600083018a611bad565b611fb16020830189611bad565b611fbe6040830188611ed0565b611fcb6060830187611ed0565b611fd86080830186611edf565b611fe560a0830185611c87565b611ff260c0830184611c87565b98975050505050505050565b600060208201905081810360008301526120188184611bbc565b905092915050565b6000602082019050818103600083015261203a8184611c1a565b905092915050565b60006040820190506120576000830185611c78565b6120646020830184611ed0565b9392505050565b60006080820190506120806000830187611c87565b61208d6020830186611edf565b61209a6040830185611c87565b6120a76060830184611c87565b95945050505050565b600060808201905081810360008301526120ca8187611ce6565b90506120d96020830186611bad565b6120e66040830185611bad565b6120f36060830184611bad565b95945050505050565b600060408201905081810360008301526121168185611ce6565b90506121256020830184611ed0565b9392505050565b6000602082019050818103600083015261214581611dc2565b9050919050565b6000602082019050818103600083015261216581611de5565b9050919050565b6000602082019050818103600083015261218581611e08565b9050919050565b600060208201905081810360008301526121a581611e2b565b9050919050565b600060208201905081810360008301526121c581611e4e565b9050919050565b600060208201905081810360008301526121e68184611e71565b905092915050565b60006060820190506122036000830186611ed0565b6122106020830185611ed0565b81810360408301526122228184611d1f565b9050949350505050565b60006080820190506122416000830187611ed0565b61224e6020830186611ed0565b61225b6040830185611ed0565b818103606083015261226d8184611ce6565b905095945050505050565b600060a08201905061228d6000830188611ed0565b61229a6020830187611ed0565b6122a76040830186611edf565b6122b46060830185611c87565b6122c16080830184611c87565b9695505050505050565b60006122d56122e6565b90506122e18282612511565b919050565b6000604051905090565b600067ffffffffffffffff82111561230b5761230a6125f3565b5b61231482612622565b9050602081019050919050565b6000819050602082019050919050565b6000819050602082019050919050565b60008190508160005260206000209050919050565b600081519050919050565b600081519050919050565b600081519050919050565b6000602082019050919050565b6000602082019050919050565b600082825260208201905092915050565b600082825260208201905092915050565b600082825260208201905092915050565b600082825260208201905092915050565b600081905092915050565b60006123eb8261245c565b91506123f68361245c565b92508282101561240957612408612595565b5b828203905092915050565b600061241f8261243c565b9050919050565b60008115159050919050565b6000819050919050565b600073ffffffffffffffffffffffffffffffffffffffff82169050919050565b6000819050919050565b600060ff82169050919050565b82818337600083830152505050565b60005b838110156124a0578082015181840152602081019050612485565b838111156124af576000848401525b50505050565b60006124c08261245c565b915060008214156124d4576124d3612595565b5b600182039050919050565b600060028204905060018216806124f757607f821691505b6020821081141561250b5761250a6125c4565b5b50919050565b61251a82612622565b810181811067ffffffffffffffff82111715612539576125386125f3565b5b80604052505050565b600061254d8261245c565b91507fffffffffffffffffffffffffffffffffffffffffffffffffffffffffffffffff8214156125805761257f612595565b5b600182019050919050565b6000819050919050565b7f4e487b7100000000000000000000000000000000000000000000000000000000600052601160045260246000fd5b7f4e487b7100000000000000000000000000000000000000000000000000000000600052602260045260246000fd5b7f4e487b7100000000000000000000000000000000000000000000000000000000600052604160045260246000fd5b6000601f19601f8301169050919050565b7f19457468657265756d205369676e6564204d6573736167653a0a333200000000600082015250565b7f4e6f7420656e6f75676820636f70696573000000000000000000000000000000600082015250565b7f4f776e61626c653a206e6577206f776e657220697320746865207a65726f206160008201527f6464726573730000000000000000000000000000000000000000000000000000602082015250565b7f5468697320626f6f6b206973206e6f7420626f72726f77656400000000000000600082015250565b7f4f776e61626c653a2063616c6c6572206973206e6f7420746865206f776e6572600082015250565b7f5468697320626f6f6b20697320616c726561647920626f72726f776564000000600082015250565b61275881612414565b811461276357600080fd5b50565b61276f81612426565b811461277a57600080fd5b50565b61278681612432565b811461279157600080fd5b50565b61279d8161245c565b81146127a857600080fd5b50565b6127b481612466565b81146127bf57600080fd5b5056fe66726f6d202725732720746f2027257327203a20426f6f6b4c69627261727920636f6e7472616374202573a264697066735822122034dda1e5e0cc55e7aa007df851509d3d2760d577c7eb48ba476dd5879b5ccb3e64736f6c63430008040033",
  "linkReferences": {},
  "deployedLinkReferences": {}
}