{
  "_format": "hh-sol-artifact-1",
  "contractName": "LToken",
  "sourceName": "contracts/LToken.sol",
  "abi": [
    {
      "inputs": [
        {
          "internalType": "uint256",
          "name": "initialSupply",
          "type": "uint256"
        }
      ],
      "stateMutability": "nonpayable",
      "type": "constructor"
    },
    {
      "anonymous": false,
      "inputs": [
        {
          "indexed": true,
          "internalType": "address",
          "name": "owner",
          "type": "address"
        },
        {
          "indexed": true,
          "internalType": "address",
          "name": "spender",
          "type": "address"
        },
        {
          "indexed": false,
          "internalType": "uint256",
          "name": "value",
          "type": "uint256"
        }
      ],
      "name": "Approval",
      "type": "event"
    },
    {
      "anonymous": false,
      "inputs": [
        {
          "indexed": false,
          "internalType": "address",
          "name": "account",
          "type": "address"
        }
      ],
      "name": "Paused",
      "type": "event"
    },
    {
      "anonymous": false,
      "inputs": [
        {
          "indexed": true,
          "internalType": "bytes32",
          "name": "role",
          "type": "bytes32"
        },
        {
          "indexed": true,
          "internalType": "bytes32",
          "name": "previousAdminRole",
          "type": "bytes32"
        },
        {
          "indexed": true,
          "internalType": "bytes32",
          "name": "newAdminRole",
          "type": "bytes32"
        }
      ],
      "name": "RoleAdminChanged",
      "type": "event"
    },
    {
      "anonymous": false,
      "inputs": [
        {
          "indexed": true,
          "internalType": "bytes32",
          "name": "role",
          "type": "bytes32"
        },
        {
          "indexed": true,
          "internalType": "address",
          "name": "account",
          "type": "address"
        },
        {
          "indexed": true,
          "internalType": "address",
          "name": "sender",
          "type": "address"
        }
      ],
      "name": "RoleGranted",
      "type": "event"
    },
    {
      "anonymous": false,
      "inputs": [
        {
          "indexed": true,
          "internalType": "bytes32",
          "name": "role",
          "type": "bytes32"
        },
        {
          "indexed": true,
          "internalType": "address",
          "name": "account",
          "type": "address"
        },
        {
          "indexed": true,
          "internalType": "address",
          "name": "sender",
          "type": "address"
        }
      ],
      "name": "RoleRevoked",
      "type": "event"
    },
    {
      "anonymous": false,
      "inputs": [
        {
          "indexed": true,
          "internalType": "address",
          "name": "from",
          "type": "address"
        },
        {
          "indexed": true,
          "internalType": "address",
          "name": "to",
          "type": "address"
        },
        {
          "indexed": false,
          "internalType": "uint256",
          "name": "value",
          "type": "uint256"
        }
      ],
      "name": "Transfer",
      "type": "event"
    },
    {
      "anonymous": false,
      "inputs": [
        {
          "indexed": false,
          "internalType": "address",
          "name": "account",
          "type": "address"
        }
      ],
      "name": "Unpaused",
      "type": "event"
    },
    {
      "inputs": [],
      "name": "DEFAULT_ADMIN_ROLE",
      "outputs": [
        {
          "internalType": "bytes32",
          "name": "",
          "type": "bytes32"
        }
      ],
      "stateMutability": "view",
      "type": "function"
    },
    {
      "inputs": [],
      "name": "DOMAIN_SEPARATOR",
      "outputs": [
        {
          "internalType": "bytes32",
          "name": "",
          "type": "bytes32"
        }
      ],
      "stateMutability": "view",
      "type": "function"
    },
    {
      "inputs": [],
      "name": "MINTER_ROLE",
      "outputs": [
        {
          "internalType": "bytes32",
          "name": "",
          "type": "bytes32"
        }
      ],
      "stateMutability": "view",
      "type": "function"
    },
    {
      "inputs": [],
      "name": "PAUSER_ROLE",
      "outputs": [
        {
          "internalType": "bytes32",
          "name": "",
          "type": "bytes32"
        }
      ],
      "stateMutability": "view",
      "type": "function"
    },
    {
      "inputs": [],
      "name": "PERMIT_TYPEHASH",
      "outputs": [
        {
          "internalType": "bytes32",
          "name": "",
          "type": "bytes32"
        }
      ],
      "stateMutability": "view",
      "type": "function"
    },
    {
      "inputs": [
        {
          "internalType": "address",
          "name": "owner",
          "type": "address"
        },
        {
          "internalType": "address",
          "name": "spender",
          "type": "address"
        }
      ],
      "name": "allowance",
      "outputs": [
        {
          "internalType": "uint256",
          "name": "",
          "type": "uint256"
        }
      ],
      "stateMutability": "view",
      "type": "function"
    },
    {
      "inputs": [
        {
          "internalType": "address",
          "name": "spender",
          "type": "address"
        },
        {
          "internalType": "uint256",
          "name": "amount",
          "type": "uint256"
        }
      ],
      "name": "approve",
      "outputs": [
        {
          "internalType": "bool",
          "name": "",
          "type": "bool"
        }
      ],
      "stateMutability": "nonpayable",
      "type": "function"
    },
    {
      "inputs": [
        {
          "internalType": "address",
          "name": "account",
          "type": "address"
        }
      ],
      "name": "balanceOf",
      "outputs": [
        {
          "internalType": "uint256",
          "name": "",
          "type": "uint256"
        }
      ],
      "stateMutability": "view",
      "type": "function"
    },
    {
      "inputs": [
        {
          "internalType": "uint256",
          "name": "amount",
          "type": "uint256"
        }
      ],
      "name": "burn",
      "outputs": [],
      "stateMutability": "nonpayable",
      "type": "function"
    },
    {
      "inputs": [
        {
          "internalType": "address",
          "name": "account",
          "type": "address"
        },
        {
          "internalType": "uint256",
          "name": "amount",
          "type": "uint256"
        }
      ],
      "name": "burnFrom",
      "outputs": [],
      "stateMutability": "nonpayable",
      "type": "function"
    },
    {
      "inputs": [],
      "name": "decimals",
      "outputs": [
        {
          "internalType": "uint8",
          "name": "",
          "type": "uint8"
        }
      ],
      "stateMutability": "view",
      "type": "function"
    },
    {
      "inputs": [
        {
          "internalType": "address",
          "name": "spender",
          "type": "address"
        },
        {
          "internalType": "uint256",
          "name": "subtractedValue",
          "type": "uint256"
        }
      ],
      "name": "decreaseAllowance",
      "outputs": [
        {
          "internalType": "bool",
          "name": "",
          "type": "bool"
        }
      ],
      "stateMutability": "nonpayable",
      "type": "function"
    },
    {
      "inputs": [
        {
          "internalType": "bytes32",
          "name": "role",
          "type": "bytes32"
        }
      ],
      "name": "getRoleAdmin",
      "outputs": [
        {
          "internalType": "bytes32",
          "name": "",
          "type": "bytes32"
        }
      ],
      "stateMutability": "view",
      "type": "function"
    },
    {
      "inputs": [
        {
          "internalType": "bytes32",
          "name": "role",
          "type": "bytes32"
        },
        {
          "internalType": "uint256",
          "name": "index",
          "type": "uint256"
        }
      ],
      "name": "getRoleMember",
      "outputs": [
        {
          "internalType": "address",
          "name": "",
          "type": "address"
        }
      ],
      "stateMutability": "view",
      "type": "function"
    },
    {
      "inputs": [
        {
          "internalType": "bytes32",
          "name": "role",
          "type": "bytes32"
        }
      ],
      "name": "getRoleMemberCount",
      "outputs": [
        {
          "internalType": "uint256",
          "name": "",
          "type": "uint256"
        }
      ],
      "stateMutability": "view",
      "type": "function"
    },
    {
      "inputs": [
        {
          "internalType": "bytes32",
          "name": "role",
          "type": "bytes32"
        },
        {
          "internalType": "address",
          "name": "account",
          "type": "address"
        }
      ],
      "name": "grantRole",
      "outputs": [],
      "stateMutability": "nonpayable",
      "type": "function"
    },
    {
      "inputs": [
        {
          "internalType": "bytes32",
          "name": "role",
          "type": "bytes32"
        },
        {
          "internalType": "address",
          "name": "account",
          "type": "address"
        }
      ],
      "name": "hasRole",
      "outputs": [
        {
          "internalType": "bool",
          "name": "",
          "type": "bool"
        }
      ],
      "stateMutability": "view",
      "type": "function"
    },
    {
      "inputs": [
        {
          "internalType": "address",
          "name": "spender",
          "type": "address"
        },
        {
          "internalType": "uint256",
          "name": "addedValue",
          "type": "uint256"
        }
      ],
      "name": "increaseAllowance",
      "outputs": [
        {
          "internalType": "bool",
          "name": "",
          "type": "bool"
        }
      ],
      "stateMutability": "nonpayable",
      "type": "function"
    },
    {
      "inputs": [
        {
          "internalType": "address",
          "name": "to",
          "type": "address"
        },
        {
          "internalType": "uint256",
          "name": "amount",
          "type": "uint256"
        }
      ],
      "name": "mint",
      "outputs": [],
      "stateMutability": "nonpayable",
      "type": "function"
    },
    {
      "inputs": [],
      "name": "name",
      "outputs": [
        {
          "internalType": "string",
          "name": "",
          "type": "string"
        }
      ],
      "stateMutability": "view",
      "type": "function"
    },
    {
      "inputs": [
        {
          "internalType": "address",
          "name": "",
          "type": "address"
        }
      ],
      "name": "nonces",
      "outputs": [
        {
          "internalType": "uint256",
          "name": "",
          "type": "uint256"
        }
      ],
      "stateMutability": "view",
      "type": "function"
    },
    {
      "inputs": [],
      "name": "pause",
      "outputs": [],
      "stateMutability": "nonpayable",
      "type": "function"
    },
    {
      "inputs": [],
      "name": "paused",
      "outputs": [
        {
          "internalType": "bool",
          "name": "",
          "type": "bool"
        }
      ],
      "stateMutability": "view",
      "type": "function"
    },
    {
      "inputs": [
        {
          "internalType": "address",
          "name": "owner",
          "type": "address"
        },
        {
          "internalType": "address",
          "name": "spender",
          "type": "address"
        },
        {
          "internalType": "uint256",
          "name": "value",
          "type": "uint256"
        },
        {
          "internalType": "uint256",
          "name": "deadline",
          "type": "uint256"
        },
        {
          "internalType": "uint8",
          "name": "v",
          "type": "uint8"
        },
        {
          "internalType": "bytes32",
          "name": "r",
          "type": "bytes32"
        },
        {
          "internalType": "bytes32",
          "name": "s",
          "type": "bytes32"
        }
      ],
      "name": "permit",
      "outputs": [],
      "stateMutability": "nonpayable",
      "type": "function"
    },
    {
      "inputs": [
        {
          "internalType": "bytes32",
          "name": "role",
          "type": "bytes32"
        },
        {
          "internalType": "address",
          "name": "account",
          "type": "address"
        }
      ],
      "name": "renounceRole",
      "outputs": [],
      "stateMutability": "nonpayable",
      "type": "function"
    },
    {
      "inputs": [
        {
          "internalType": "bytes32",
          "name": "role",
          "type": "bytes32"
        },
        {
          "internalType": "address",
          "name": "account",
          "type": "address"
        }
      ],
      "name": "revokeRole",
      "outputs": [],
      "stateMutability": "nonpayable",
      "type": "function"
    },
    {
      "inputs": [
        {
          "internalType": "bytes4",
          "name": "interfaceId",
          "type": "bytes4"
        }
      ],
      "name": "supportsInterface",
      "outputs": [
        {
          "internalType": "bool",
          "name": "",
          "type": "bool"
        }
      ],
      "stateMutability": "view",
      "type": "function"
    },
    {
      "inputs": [],
      "name": "symbol",
      "outputs": [
        {
          "internalType": "string",
          "name": "",
          "type": "string"
        }
      ],
      "stateMutability": "view",
      "type": "function"
    },
    {
      "inputs": [],
      "name": "totalSupply",
      "outputs": [
        {
          "internalType": "uint256",
          "name": "",
          "type": "uint256"
        }
      ],
      "stateMutability": "view",
      "type": "function"
    },
    {
      "inputs": [
        {
          "internalType": "address",
          "name": "recipient",
          "type": "address"
        },
        {
          "internalType": "uint256",
          "name": "amount",
          "type": "uint256"
        }
      ],
      "name": "transfer",
      "outputs": [
        {
          "internalType": "bool",
          "name": "",
          "type": "bool"
        }
      ],
      "stateMutability": "nonpayable",
      "type": "function"
    },
    {
      "inputs": [
        {
          "internalType": "address",
          "name": "sender",
          "type": "address"
        },
        {
          "internalType": "address",
          "name": "recipient",
          "type": "address"
        },
        {
          "internalType": "uint256",
          "name": "amount",
          "type": "uint256"
        }
      ],
      "name": "transferFrom",
      "outputs": [
        {
          "internalType": "bool",
          "name": "",
          "type": "bool"
        }
      ],
      "stateMutability": "nonpayable",
      "type": "function"
    },
    {
      "inputs": [],
      "name": "unpause",
      "outputs": [],
      "stateMutability": "nonpayable",
      "type": "function"
    }
  ],
  "bytecode": "0x60806040523480156200001157600080fd5b50604051620045e6380380620045e6833981810160405281019062000037919062000807565b6040518060400160405280600681526020017f4c696272617300000000000000000000000000000000000000000000000000008152506040518060400160405280600381526020017f4c4953000000000000000000000000000000000000000000000000000000000081525081818160059080519060200190620000bd92919062000740565b508060069080519060200190620000d692919062000740565b5050506000600760006101000a81548160ff021916908315150217905550620001186000801b6200010c6200028260201b60201c565b6200028a60201b60201c565b620001597f9f2df0fed2c77648de5860a4cc508cd0818c85b8b8a1ab4ceeef8d981c8956a66200014d6200028260201b60201c565b6200028a60201b60201c565b6200019a7f65d7a28e3265b37a6474929f336521b332c1681b933f6cb9f3376673440d862a6200018e6200028260201b60201c565b6200028a60201b60201c565b5050620001ae3382620002d260201b60201c565b7f91ab3d17e3a50a9d89e63fd30b92be7f5336b03b287bb946787a83a9d62a27666040518060400160405280600d81526020017f4c69627261727920546f6b656e00000000000000000000000000000000000000815250805190602001206040518060400160405280600181526020017f310000000000000000000000000000000000000000000000000000000000000081525080519060200120306040516020016200025f9493929190620008b4565b604051602081830303815290604052805190602001206008819055505062000b3e565b600033905090565b620002a182826200044c60201b620012011760201c565b620002cd81600160008581526020019081526020016000206200046260201b6200120f1790919060201c565b505050565b600073ffffffffffffffffffffffffffffffffffffffff168273ffffffffffffffffffffffffffffffffffffffff16141562000345576040517f08c379a00000000000000000000000000000000000000000000000000000000081526004016200033c9062000901565b60405180910390fd5b62000359600083836200049a60201b60201c565b80600460008282546200036d919062000973565b9250508190555080600260008473ffffffffffffffffffffffffffffffffffffffff1673ffffffffffffffffffffffffffffffffffffffff1681526020019081526020016000206000828254620003c5919062000973565b925050819055508173ffffffffffffffffffffffffffffffffffffffff16600073ffffffffffffffffffffffffffffffffffffffff167fddf252ad1be2c89b69c2b068fc378daa952ba7f163c4a11628f55a4df523b3ef836040516200042c919062000945565b60405180910390a36200044860008383620004b760201b60201c565b5050565b6200045e8282620004bc60201b60201c565b5050565b600062000492836000018373ffffffffffffffffffffffffffffffffffffffff1660001b620005ad60201b60201c565b905092915050565b620004b28383836200062760201b6200123f1760201c565b505050565b505050565b620004ce82826200069760201b60201c565b620005a957600160008084815260200190815260200160002060000160008373ffffffffffffffffffffffffffffffffffffffff1673ffffffffffffffffffffffffffffffffffffffff16815260200190815260200160002060006101000a81548160ff0219169083151502179055506200054e6200028260201b60201c565b73ffffffffffffffffffffffffffffffffffffffff168173ffffffffffffffffffffffffffffffffffffffff16837f2f8788117e7eff1d82e926ec794901d17c78024a50270940304540a733656f0d60405160405180910390a45b5050565b6000620005c183836200070160201b60201c565b6200061c57826000018290806001815401808255809150506001900390600052602060002001600090919091909150558260000180549050836001016000848152602001908152602001600020819055506001905062000621565b600090505b92915050565b6200063f8383836200072460201b620012971760201c565b6200064f6200072960201b60201c565b1562000692576040517f08c379a0000000000000000000000000000000000000000000000000000000008152600401620006899062000923565b60405180910390fd5b505050565b600080600084815260200190815260200160002060000160008373ffffffffffffffffffffffffffffffffffffffff1673ffffffffffffffffffffffffffffffffffffffff16815260200190815260200160002060009054906101000a900460ff16905092915050565b600080836001016000848152602001908152602001600020541415905092915050565b505050565b6000600760009054906101000a900460ff16905090565b8280546200074e9062000a18565b90600052602060002090601f016020900481019282620007725760008555620007be565b82601f106200078d57805160ff1916838001178555620007be565b82800160010185558215620007be579182015b82811115620007bd578251825591602001919060010190620007a0565b5b509050620007cd9190620007d1565b5090565b5b80821115620007ec576000816000905550600101620007d2565b5090565b600081519050620008018162000b24565b92915050565b6000602082840312156200081a57600080fd5b60006200082a84828501620007f0565b91505092915050565b6200083e81620009d0565b82525050565b6200084f81620009e4565b82525050565b600062000864601f8362000962565b9150620008718262000aac565b602082019050919050565b60006200088b602a8362000962565b9150620008988262000ad5565b604082019050919050565b620008ae8162000a0e565b82525050565b6000608082019050620008cb600083018762000844565b620008da602083018662000844565b620008e9604083018562000844565b620008f8606083018462000833565b95945050505050565b600060208201905081810360008301526200091c8162000855565b9050919050565b600060208201905081810360008301526200093e816200087c565b9050919050565b60006020820190506200095c6000830184620008a3565b92915050565b600082825260208201905092915050565b6000620009808262000a0e565b91506200098d8362000a0e565b9250827fffffffffffffffffffffffffffffffffffffffffffffffffffffffffffffffff03821115620009c557620009c462000a4e565b5b828201905092915050565b6000620009dd82620009ee565b9050919050565b6000819050919050565b600073ffffffffffffffffffffffffffffffffffffffff82169050919050565b6000819050919050565b6000600282049050600182168062000a3157607f821691505b6020821081141562000a485762000a4762000a7d565b5b50919050565b7f4e487b7100000000000000000000000000000000000000000000000000000000600052601160045260246000fd5b7f4e487b7100000000000000000000000000000000000000000000000000000000600052602260045260246000fd5b7f45524332303a206d696e7420746f20746865207a65726f206164647265737300600082015250565b7f45524332305061757361626c653a20746f6b656e207472616e7366657220776860008201527f696c652070617573656400000000000000000000000000000000000000000000602082015250565b62000b2f8162000a0e565b811462000b3b57600080fd5b50565b613a988062000b4e6000396000f3fe608060405234801561001057600080fd5b50600436106101f05760003560e01c806370a082311161010f578063a457c2d7116100a2578063d539139311610071578063d5391393146105e1578063d547741f146105ff578063dd62ed3e1461061b578063e63ab1e91461064b576101f0565b8063a457c2d714610535578063a9059cbb14610565578063ca15c87314610595578063d505accf146105c5576101f0565b80639010d07c116100de5780639010d07c1461049957806391d14854146104c957806395d89b41146104f9578063a217fddf14610517576101f0565b806370a082311461041357806379cc6790146104435780637ecebe001461045f5780638456cb591461048f576101f0565b8063313ce567116101875780633f4ba83a116101565780633f4ba83a146103b357806340c10f19146103bd57806342966c68146103d95780635c975abb146103f5576101f0565b8063313ce5671461032b5780633644e5151461034957806336568abe146103675780633950935114610383576101f0565b806323b872dd116101c357806323b872dd14610291578063248a9ca3146102c15780632f2ff15d146102f157806330adf81f1461030d576101f0565b806301ffc9a7146101f557806306fdde0314610225578063095ea7b31461024357806318160ddd14610273575b600080fd5b61020f600480360381019061020a919061280a565b610669565b60405161021c9190612cfc565b60405180910390f35b61022d6106e3565b60405161023a9190612dd8565b60405180910390f35b61025d6004803603810190610258919061272d565b610775565b60405161026a9190612cfc565b60405180910390f35b61027b610793565b604051610288919061309a565b60405180910390f35b6102ab60048036038101906102a69190612640565b61079d565b6040516102b89190612cfc565b60405180910390f35b6102db60048036038101906102d69190612769565b610895565b6040516102e89190612d17565b60405180910390f35b61030b60048036038101906103069190612792565b6108b4565b005b6103156108e8565b6040516103229190612d17565b60405180910390f35b61033361090f565b60405161034091906130b5565b60405180910390f35b610351610918565b60405161035e9190612d17565b60405180910390f35b610381600480360381019061037c9190612792565b61091e565b005b61039d6004803603810190610398919061272d565b610952565b6040516103aa9190612cfc565b60405180910390f35b6103bb6109fe565b005b6103d760048036038101906103d2919061272d565b610a78565b005b6103f360048036038101906103ee9190612833565b610af6565b005b6103fd610b0a565b60405161040a9190612cfc565b60405180910390f35b61042d600480360381019061042891906125db565b610b21565b60405161043a919061309a565b60405180910390f35b61045d6004803603810190610458919061272d565b610b6a565b005b610479600480360381019061047491906125db565b610be5565b604051610486919061309a565b60405180910390f35b610497610bfd565b005b6104b360048036038101906104ae91906127ce565b610c77565b6040516104c09190612ce1565b60405180910390f35b6104e360048036038101906104de9190612792565b610ca6565b6040516104f09190612cfc565b60405180910390f35b610501610d10565b60405161050e9190612dd8565b60405180910390f35b61051f610da2565b60405161052c9190612d17565b60405180910390f35b61054f600480360381019061054a919061272d565b610da9565b60405161055c9190612cfc565b60405180910390f35b61057f600480360381019061057a919061272d565b610e94565b60405161058c9190612cfc565b60405180910390f35b6105af60048036038101906105aa9190612769565b610eb2565b6040516105bc919061309a565b60405180910390f35b6105df60048036038101906105da919061268f565b610ed6565b005b6105e96110fe565b6040516105f69190612d17565b60405180910390f35b61061960048036038101906106149190612792565b611122565b005b61063560048036038101906106309190612604565b611156565b604051610642919061309a565b60405180910390f35b6106536111dd565b6040516106609190612d17565b60405180910390f35b60007f5a05180f000000000000000000000000000000000000000000000000000000007bffffffffffffffffffffffffffffffffffffffffffffffffffffffff1916827bffffffffffffffffffffffffffffffffffffffffffffffffffffffff191614806106dc57506106db8261129c565b5b9050919050565b6060600580546106f2906132c3565b80601f016020809104026020016040519081016040528092919081815260200182805461071e906132c3565b801561076b5780601f106107405761010080835404028352916020019161076b565b820191906000526020600020905b81548152906001019060200180831161074e57829003601f168201915b5050505050905090565b6000610789610782611316565b848461131e565b6001905092915050565b6000600454905090565b60006107aa8484846114e9565b6000600360008673ffffffffffffffffffffffffffffffffffffffff1673ffffffffffffffffffffffffffffffffffffffff16815260200190815260200160002060006107f5611316565b73ffffffffffffffffffffffffffffffffffffffff1673ffffffffffffffffffffffffffffffffffffffff16815260200190815260200160002054905082811015610875576040517f08c379a000000000000000000000000000000000000000000000000000000000815260040161086c90612efa565b60405180910390fd5b61088985610881611316565b85840361131e565b60019150509392505050565b6000806000838152602001908152602001600020600101549050919050565b6108be828261176d565b6108e3816001600085815260200190815260200160002061120f90919063ffffffff16565b505050565b7f6e71edae12b1b97f4d1f60370fef10105fa2faae0126114a169c64845d6126c960001b81565b60006012905090565b60085481565b6109288282611796565b61094d816001600085815260200190815260200160002061181990919063ffffffff16565b505050565b60006109f461095f611316565b84846003600061096d611316565b73ffffffffffffffffffffffffffffffffffffffff1673ffffffffffffffffffffffffffffffffffffffff16815260200190815260200160002060008873ffffffffffffffffffffffffffffffffffffffff1673ffffffffffffffffffffffffffffffffffffffff168152602001908152602001600020546109ef91906130f7565b61131e565b6001905092915050565b610a2f7f65d7a28e3265b37a6474929f336521b332c1681b933f6cb9f3376673440d862a610a2a611316565b610ca6565b610a6e576040517f08c379a0000000000000000000000000000000000000000000000000000000008152600401610a6590612e7a565b60405180910390fd5b610a76611849565b565b610aa97f9f2df0fed2c77648de5860a4cc508cd0818c85b8b8a1ab4ceeef8d981c8956a6610aa4611316565b610ca6565b610ae8576040517f08c379a0000000000000000000000000000000000000000000000000000000008152600401610adf90612f3a565b60405180910390fd5b610af282826118eb565b5050565b610b07610b01611316565b82611a4c565b50565b6000600760009054906101000a900460ff16905090565b6000600260008373ffffffffffffffffffffffffffffffffffffffff1673ffffffffffffffffffffffffffffffffffffffff168152602001908152602001600020549050919050565b6000610b7d83610b78611316565b611156565b905081811015610bc2576040517f08c379a0000000000000000000000000000000000000000000000000000000008152600401610bb990612f5a565b60405180910390fd5b610bd683610bce611316565b84840361131e565b610be08383611a4c565b505050565b60096020528060005260406000206000915090505481565b610c2e7f65d7a28e3265b37a6474929f336521b332c1681b933f6cb9f3376673440d862a610c29611316565b610ca6565b610c6d576040517f08c379a0000000000000000000000000000000000000000000000000000000008152600401610c6490612ffa565b60405180910390fd5b610c75611c25565b565b6000610c9e8260016000868152602001908152602001600020611cc890919063ffffffff16565b905092915050565b600080600084815260200190815260200160002060000160008373ffffffffffffffffffffffffffffffffffffffff1673ffffffffffffffffffffffffffffffffffffffff16815260200190815260200160002060009054906101000a900460ff16905092915050565b606060068054610d1f906132c3565b80601f0160208091040260200160405190810160405280929190818152602001828054610d4b906132c3565b8015610d985780601f10610d6d57610100808354040283529160200191610d98565b820191906000526020600020905b815481529060010190602001808311610d7b57829003601f168201915b5050505050905090565b6000801b81565b60008060036000610db8611316565b73ffffffffffffffffffffffffffffffffffffffff1673ffffffffffffffffffffffffffffffffffffffff16815260200190815260200160002060008573ffffffffffffffffffffffffffffffffffffffff1673ffffffffffffffffffffffffffffffffffffffff16815260200190815260200160002054905082811015610e75576040517f08c379a0000000000000000000000000000000000000000000000000000000008152600401610e6c9061301a565b60405180910390fd5b610e89610e80611316565b8585840361131e565b600191505092915050565b6000610ea8610ea1611316565b84846114e9565b6001905092915050565b6000610ecf60016000848152602001908152602001600020611ce2565b9050919050565b42841015610f19576040517f08c379a0000000000000000000000000000000000000000000000000000000008152600401610f1090612f1a565b60405180910390fd5b60006008547f6e71edae12b1b97f4d1f60370fef10105fa2faae0126114a169c64845d6126c960001b898989600960008e73ffffffffffffffffffffffffffffffffffffffff1673ffffffffffffffffffffffffffffffffffffffff1681526020019081526020016000206000815480929190610f95906132f5565b919050558a604051602001610faf96959493929190612d32565b60405160208183030381529060405280519060200120604051602001610fd6929190612c70565b6040516020818303038152906040528051906020012090506000600182868686604051600081526020016040526040516110139493929190612d93565b6020604051602081039080840390855afa158015611035573d6000803e3d6000fd5b505050602060405103519050600073ffffffffffffffffffffffffffffffffffffffff168173ffffffffffffffffffffffffffffffffffffffff16141580156110a957508873ffffffffffffffffffffffffffffffffffffffff168173ffffffffffffffffffffffffffffffffffffffff16145b6110e8576040517f08c379a00000000000000000000000000000000000000000000000000000000081526004016110df90612f9a565b60405180910390fd5b6110f389898961131e565b505050505050505050565b7f9f2df0fed2c77648de5860a4cc508cd0818c85b8b8a1ab4ceeef8d981c8956a681565b61112c8282611cf7565b611151816001600085815260200190815260200160002061181990919063ffffffff16565b505050565b6000600360008473ffffffffffffffffffffffffffffffffffffffff1673ffffffffffffffffffffffffffffffffffffffff16815260200190815260200160002060008373ffffffffffffffffffffffffffffffffffffffff1673ffffffffffffffffffffffffffffffffffffffff16815260200190815260200160002054905092915050565b7f65d7a28e3265b37a6474929f336521b332c1681b933f6cb9f3376673440d862a81565b61120b8282611d20565b5050565b6000611237836000018373ffffffffffffffffffffffffffffffffffffffff1660001b611e00565b905092915050565b61124a838383611297565b611252610b0a565b15611292576040517f08c379a00000000000000000000000000000000000000000000000000000000081526004016112899061307a565b60405180910390fd5b505050565b505050565b60007f7965db0b000000000000000000000000000000000000000000000000000000007bffffffffffffffffffffffffffffffffffffffffffffffffffffffff1916827bffffffffffffffffffffffffffffffffffffffffffffffffffffffff1916148061130f575061130e82611e70565b5b9050919050565b600033905090565b600073ffffffffffffffffffffffffffffffffffffffff168373ffffffffffffffffffffffffffffffffffffffff16141561138e576040517f08c379a000000000000000000000000000000000000000000000000000000000815260040161138590612fda565b60405180910390fd5b600073ffffffffffffffffffffffffffffffffffffffff168273ffffffffffffffffffffffffffffffffffffffff1614156113fe576040517f08c379a00000000000000000000000000000000000000000000000000000000081526004016113f590612e9a565b60405180910390fd5b80600360008573ffffffffffffffffffffffffffffffffffffffff1673ffffffffffffffffffffffffffffffffffffffff16815260200190815260200160002060008473ffffffffffffffffffffffffffffffffffffffff1673ffffffffffffffffffffffffffffffffffffffff168152602001908152602001600020819055508173ffffffffffffffffffffffffffffffffffffffff168373ffffffffffffffffffffffffffffffffffffffff167f8c5be1e5ebec7d5bd14f71427d1e84f3dd0314c0f7b2291e5b200ac8c7c3b925836040516114dc919061309a565b60405180910390a3505050565b600073ffffffffffffffffffffffffffffffffffffffff168373ffffffffffffffffffffffffffffffffffffffff161415611559576040517f08c379a000000000000000000000000000000000000000000000000000000000815260040161155090612fba565b60405180910390fd5b600073ffffffffffffffffffffffffffffffffffffffff168273ffffffffffffffffffffffffffffffffffffffff1614156115c9576040517f08c379a00000000000000000000000000000000000000000000000000000000081526004016115c090612e1a565b60405180910390fd5b6115d4838383611eda565b6000600260008573ffffffffffffffffffffffffffffffffffffffff1673ffffffffffffffffffffffffffffffffffffffff1681526020019081526020016000205490508181101561165b576040517f08c379a000000000000000000000000000000000000000000000000000000000815260040161165290612eba565b60405180910390fd5b818103600260008673ffffffffffffffffffffffffffffffffffffffff1673ffffffffffffffffffffffffffffffffffffffff1681526020019081526020016000208190555081600260008573ffffffffffffffffffffffffffffffffffffffff1673ffffffffffffffffffffffffffffffffffffffff16815260200190815260200160002060008282546116f091906130f7565b925050819055508273ffffffffffffffffffffffffffffffffffffffff168473ffffffffffffffffffffffffffffffffffffffff167fddf252ad1be2c89b69c2b068fc378daa952ba7f163c4a11628f55a4df523b3ef84604051611754919061309a565b60405180910390a3611767848484611eea565b50505050565b61177682610895565b61178781611782611316565b611eef565b6117918383611d20565b505050565b61179e611316565b73ffffffffffffffffffffffffffffffffffffffff168173ffffffffffffffffffffffffffffffffffffffff161461180b576040517f08c379a00000000000000000000000000000000000000000000000000000000081526004016118029061303a565b60405180910390fd5b6118158282611f8c565b5050565b6000611841836000018373ffffffffffffffffffffffffffffffffffffffff1660001b61206d565b905092915050565b611851610b0a565b611890576040517f08c379a000000000000000000000000000000000000000000000000000000000815260040161188790612e3a565b60405180910390fd5b6000600760006101000a81548160ff0219169083151502179055507f5db9ee0a495bf2e6ff9c91a7834c1ba4fdd244a5e8aa4e537bd38aeae4b073aa6118d4611316565b6040516118e19190612ce1565b60405180910390a1565b600073ffffffffffffffffffffffffffffffffffffffff168273ffffffffffffffffffffffffffffffffffffffff16141561195b576040517f08c379a00000000000000000000000000000000000000000000000000000000081526004016119529061305a565b60405180910390fd5b61196760008383611eda565b806004600082825461197991906130f7565b9250508190555080600260008473ffffffffffffffffffffffffffffffffffffffff1673ffffffffffffffffffffffffffffffffffffffff16815260200190815260200160002060008282546119cf91906130f7565b925050819055508173ffffffffffffffffffffffffffffffffffffffff16600073ffffffffffffffffffffffffffffffffffffffff167fddf252ad1be2c89b69c2b068fc378daa952ba7f163c4a11628f55a4df523b3ef83604051611a34919061309a565b60405180910390a3611a4860008383611eea565b5050565b600073ffffffffffffffffffffffffffffffffffffffff168273ffffffffffffffffffffffffffffffffffffffff161415611abc576040517f08c379a0000000000000000000000000000000000000000000000000000000008152600401611ab390612f7a565b60405180910390fd5b611ac882600083611eda565b6000600260008473ffffffffffffffffffffffffffffffffffffffff1673ffffffffffffffffffffffffffffffffffffffff16815260200190815260200160002054905081811015611b4f576040517f08c379a0000000000000000000000000000000000000000000000000000000008152600401611b4690612e5a565b60405180910390fd5b818103600260008573ffffffffffffffffffffffffffffffffffffffff1673ffffffffffffffffffffffffffffffffffffffff168152602001908152602001600020819055508160046000828254611ba791906131a7565b92505081905550600073ffffffffffffffffffffffffffffffffffffffff168373ffffffffffffffffffffffffffffffffffffffff167fddf252ad1be2c89b69c2b068fc378daa952ba7f163c4a11628f55a4df523b3ef84604051611c0c919061309a565b60405180910390a3611c2083600084611eea565b505050565b611c2d610b0a565b15611c6d576040517f08c379a0000000000000000000000000000000000000000000000000000000008152600401611c6490612eda565b60405180910390fd5b6001600760006101000a81548160ff0219169083151502179055507f62e78cea01bee320cd4e420270b5ea74000d11b0c9f74754ebdbfc544b05a258611cb1611316565b604051611cbe9190612ce1565b60405180910390a1565b6000611cd783600001836121f3565b60001c905092915050565b6000611cf082600001612244565b9050919050565b611d0082610895565b611d1181611d0c611316565b611eef565b611d1b8383611f8c565b505050565b611d2a8282610ca6565b611dfc57600160008084815260200190815260200160002060000160008373ffffffffffffffffffffffffffffffffffffffff1673ffffffffffffffffffffffffffffffffffffffff16815260200190815260200160002060006101000a81548160ff021916908315150217905550611da1611316565b73ffffffffffffffffffffffffffffffffffffffff168173ffffffffffffffffffffffffffffffffffffffff16837f2f8788117e7eff1d82e926ec794901d17c78024a50270940304540a733656f0d60405160405180910390a45b5050565b6000611e0c8383612255565b611e65578260000182908060018154018082558091505060019003906000526020600020016000909190919091505582600001805490508360010160008481526020019081526020016000208190555060019050611e6a565b600090505b92915050565b60007f01ffc9a7000000000000000000000000000000000000000000000000000000007bffffffffffffffffffffffffffffffffffffffffffffffffffffffff1916827bffffffffffffffffffffffffffffffffffffffffffffffffffffffff1916149050919050565b611ee583838361123f565b505050565b505050565b611ef98282610ca6565b611f8857611f1e8173ffffffffffffffffffffffffffffffffffffffff166014612278565b611f2c8360001c6020612278565b604051602001611f3d929190612ca7565b6040516020818303038152906040526040517f08c379a0000000000000000000000000000000000000000000000000000000008152600401611f7f9190612dd8565b60405180910390fd5b5050565b611f968282610ca6565b1561206957600080600084815260200190815260200160002060000160008373ffffffffffffffffffffffffffffffffffffffff1673ffffffffffffffffffffffffffffffffffffffff16815260200190815260200160002060006101000a81548160ff02191690831515021790555061200e611316565b73ffffffffffffffffffffffffffffffffffffffff168173ffffffffffffffffffffffffffffffffffffffff16837ff6391f5c32d9c69d2a47ea670b442974b53935d1edc7fd64eb21e047a839171b60405160405180910390a45b5050565b600080836001016000848152602001908152602001600020549050600081146121e757600060018261209f91906131a7565b90506000600186600001805490506120b791906131a7565b90508181146121725760008660000182815481106120fe577f4e487b7100000000000000000000000000000000000000000000000000000000600052603260045260246000fd5b9060005260206000200154905080876000018481548110612148577f4e487b7100000000000000000000000000000000000000000000000000000000600052603260045260246000fd5b90600052602060002001819055508387600101600083815260200190815260200160002081905550505b856000018054806121ac577f4e487b7100000000000000000000000000000000000000000000000000000000600052603160045260246000fd5b6001900381819060005260206000200160009055905585600101600086815260200190815260200160002060009055600193505050506121ed565b60009150505b92915050565b6000826000018281548110612231577f4e487b7100000000000000000000000000000000000000000000000000000000600052603260045260246000fd5b9060005260206000200154905092915050565b600081600001805490509050919050565b600080836001016000848152602001908152602001600020541415905092915050565b60606000600283600261228b919061314d565b61229591906130f7565b67ffffffffffffffff8111156122d4577f4e487b7100000000000000000000000000000000000000000000000000000000600052604160045260246000fd5b6040519080825280601f01601f1916602001820160405280156123065781602001600182028036833780820191505090505b5090507f300000000000000000000000000000000000000000000000000000000000000081600081518110612364577f4e487b7100000000000000000000000000000000000000000000000000000000600052603260045260246000fd5b60200101907effffffffffffffffffffffffffffffffffffffffffffffffffffffffffffff1916908160001a9053507f7800000000000000000000000000000000000000000000000000000000000000816001815181106123ee577f4e487b7100000000000000000000000000000000000000000000000000000000600052603260045260246000fd5b60200101907effffffffffffffffffffffffffffffffffffffffffffffffffffffffffffff1916908160001a9053506000600184600261242e919061314d565b61243891906130f7565b90505b6001811115612524577f3031323334353637383961626364656600000000000000000000000000000000600f8616601081106124a0577f4e487b7100000000000000000000000000000000000000000000000000000000600052603260045260246000fd5b1a60f81b8282815181106124dd577f4e487b7100000000000000000000000000000000000000000000000000000000600052603260045260246000fd5b60200101907effffffffffffffffffffffffffffffffffffffffffffffffffffffffffffff1916908160001a905350600485901c94508061251d90613299565b905061243b565b5060008414612568576040517f08c379a000000000000000000000000000000000000000000000000000000000815260040161255f90612dfa565b60405180910390fd5b8091505092915050565b600081359050612581816139ef565b92915050565b60008135905061259681613a06565b92915050565b6000813590506125ab81613a1d565b92915050565b6000813590506125c081613a34565b92915050565b6000813590506125d581613a4b565b92915050565b6000602082840312156125ed57600080fd5b60006125fb84828501612572565b91505092915050565b6000806040838503121561261757600080fd5b600061262585828601612572565b925050602061263685828601612572565b9150509250929050565b60008060006060848603121561265557600080fd5b600061266386828701612572565b935050602061267486828701612572565b9250506040612685868287016125b1565b9150509250925092565b600080600080600080600060e0888a0312156126aa57600080fd5b60006126b88a828b01612572565b97505060206126c98a828b01612572565b96505060406126da8a828b016125b1565b95505060606126eb8a828b016125b1565b94505060806126fc8a828b016125c6565b93505060a061270d8a828b01612587565b92505060c061271e8a828b01612587565b91505092959891949750929550565b6000806040838503121561274057600080fd5b600061274e85828601612572565b925050602061275f858286016125b1565b9150509250929050565b60006020828403121561277b57600080fd5b600061278984828501612587565b91505092915050565b600080604083850312156127a557600080fd5b60006127b385828601612587565b92505060206127c485828601612572565b9150509250929050565b600080604083850312156127e157600080fd5b60006127ef85828601612587565b9250506020612800858286016125b1565b9150509250929050565b60006020828403121561281c57600080fd5b600061282a8482850161259c565b91505092915050565b60006020828403121561284557600080fd5b6000612853848285016125b1565b91505092915050565b612865816131db565b82525050565b612874816131ed565b82525050565b612883816131f9565b82525050565b61289a612895826131f9565b61333e565b82525050565b60006128ab826130d0565b6128b581856130db565b93506128c5818560208601613266565b6128ce816133a6565b840191505092915050565b60006128e4826130d0565b6128ee81856130ec565b93506128fe818560208601613266565b80840191505092915050565b60006129176020836130db565b9150612922826133b7565b602082019050919050565b600061293a6023836130db565b9150612945826133e0565b604082019050919050565b600061295d6014836130db565b91506129688261342f565b602082019050919050565b60006129806022836130db565b915061298b82613458565b604082019050919050565b60006129a36039836130db565b91506129ae826134a7565b604082019050919050565b60006129c66022836130db565b91506129d1826134f6565b604082019050919050565b60006129e96002836130ec565b91506129f482613545565b600282019050919050565b6000612a0c6026836130db565b9150612a178261356e565b604082019050919050565b6000612a2f6010836130db565b9150612a3a826135bd565b602082019050919050565b6000612a526028836130db565b9150612a5d826135e6565b604082019050919050565b6000612a756018836130db565b9150612a8082613635565b602082019050919050565b6000612a986036836130db565b9150612aa38261365e565b604082019050919050565b6000612abb6024836130db565b9150612ac6826136ad565b604082019050919050565b6000612ade6021836130db565b9150612ae9826136fc565b604082019050919050565b6000612b016022836130db565b9150612b0c8261374b565b604082019050919050565b6000612b246025836130db565b9150612b2f8261379a565b604082019050919050565b6000612b476024836130db565b9150612b52826137e9565b604082019050919050565b6000612b6a6037836130db565b9150612b7582613838565b604082019050919050565b6000612b8d6017836130ec565b9150612b9882613887565b601782019050919050565b6000612bb06025836130db565b9150612bbb826138b0565b604082019050919050565b6000612bd36011836130ec565b9150612bde826138ff565b601182019050919050565b6000612bf6602f836130db565b9150612c0182613928565b604082019050919050565b6000612c19601f836130db565b9150612c2482613977565b602082019050919050565b6000612c3c602a836130db565b9150612c47826139a0565b604082019050919050565b612c5b8161324f565b82525050565b612c6a81613259565b82525050565b6000612c7b826129dc565b9150612c878285612889565b602082019150612c978284612889565b6020820191508190509392505050565b6000612cb282612b80565b9150612cbe82856128d9565b9150612cc982612bc6565b9150612cd582846128d9565b91508190509392505050565b6000602082019050612cf6600083018461285c565b92915050565b6000602082019050612d11600083018461286b565b92915050565b6000602082019050612d2c600083018461287a565b92915050565b600060c082019050612d47600083018961287a565b612d54602083018861285c565b612d61604083018761285c565b612d6e6060830186612c52565b612d7b6080830185612c52565b612d8860a0830184612c52565b979650505050505050565b6000608082019050612da8600083018761287a565b612db56020830186612c61565b612dc2604083018561287a565b612dcf606083018461287a565b95945050505050565b60006020820190508181036000830152612df281846128a0565b905092915050565b60006020820190508181036000830152612e138161290a565b9050919050565b60006020820190508181036000830152612e338161292d565b9050919050565b60006020820190508181036000830152612e5381612950565b9050919050565b60006020820190508181036000830152612e7381612973565b9050919050565b60006020820190508181036000830152612e9381612996565b9050919050565b60006020820190508181036000830152612eb3816129b9565b9050919050565b60006020820190508181036000830152612ed3816129ff565b9050919050565b60006020820190508181036000830152612ef381612a22565b9050919050565b60006020820190508181036000830152612f1381612a45565b9050919050565b60006020820190508181036000830152612f3381612a68565b9050919050565b60006020820190508181036000830152612f5381612a8b565b9050919050565b60006020820190508181036000830152612f7381612aae565b9050919050565b60006020820190508181036000830152612f9381612ad1565b9050919050565b60006020820190508181036000830152612fb381612af4565b9050919050565b60006020820190508181036000830152612fd381612b17565b9050919050565b60006020820190508181036000830152612ff381612b3a565b9050919050565b6000602082019050818103600083015261301381612b5d565b9050919050565b6000602082019050818103600083015261303381612ba3565b9050919050565b6000602082019050818103600083015261305381612be9565b9050919050565b6000602082019050818103600083015261307381612c0c565b9050919050565b6000602082019050818103600083015261309381612c2f565b9050919050565b60006020820190506130af6000830184612c52565b92915050565b60006020820190506130ca6000830184612c61565b92915050565b600081519050919050565b600082825260208201905092915050565b600081905092915050565b60006131028261324f565b915061310d8361324f565b9250827fffffffffffffffffffffffffffffffffffffffffffffffffffffffffffffffff0382111561314257613141613348565b5b828201905092915050565b60006131588261324f565b91506131638361324f565b9250817fffffffffffffffffffffffffffffffffffffffffffffffffffffffffffffffff048311821515161561319c5761319b613348565b5b828202905092915050565b60006131b28261324f565b91506131bd8361324f565b9250828210156131d0576131cf613348565b5b828203905092915050565b60006131e68261322f565b9050919050565b60008115159050919050565b6000819050919050565b60007fffffffff0000000000000000000000000000000000000000000000000000000082169050919050565b600073ffffffffffffffffffffffffffffffffffffffff82169050919050565b6000819050919050565b600060ff82169050919050565b60005b83811015613284578082015181840152602081019050613269565b83811115613293576000848401525b50505050565b60006132a48261324f565b915060008214156132b8576132b7613348565b5b600182039050919050565b600060028204905060018216806132db57607f821691505b602082108114156132ef576132ee613377565b5b50919050565b60006133008261324f565b91507fffffffffffffffffffffffffffffffffffffffffffffffffffffffffffffffff82141561333357613332613348565b5b600182019050919050565b6000819050919050565b7f4e487b7100000000000000000000000000000000000000000000000000000000600052601160045260246000fd5b7f4e487b7100000000000000000000000000000000000000000000000000000000600052602260045260246000fd5b6000601f19601f8301169050919050565b7f537472696e67733a20686578206c656e67746820696e73756666696369656e74600082015250565b7f45524332303a207472616e7366657220746f20746865207a65726f206164647260008201527f6573730000000000000000000000000000000000000000000000000000000000602082015250565b7f5061757361626c653a206e6f7420706175736564000000000000000000000000600082015250565b7f45524332303a206275726e20616d6f756e7420657863656564732062616c616e60008201527f6365000000000000000000000000000000000000000000000000000000000000602082015250565b7f45524332305072657365744d696e7465725061757365723a206d75737420686160008201527f76652070617573657220726f6c6520746f20756e706175736500000000000000602082015250565b7f45524332303a20617070726f766520746f20746865207a65726f20616464726560008201527f7373000000000000000000000000000000000000000000000000000000000000602082015250565b7f1901000000000000000000000000000000000000000000000000000000000000600082015250565b7f45524332303a207472616e7366657220616d6f756e742065786365656473206260008201527f616c616e63650000000000000000000000000000000000000000000000000000602082015250565b7f5061757361626c653a2070617573656400000000000000000000000000000000600082015250565b7f45524332303a207472616e7366657220616d6f756e742065786365656473206160008201527f6c6c6f77616e6365000000000000000000000000000000000000000000000000602082015250565b7f4552433230576974685065726d69743a20455850495245440000000000000000600082015250565b7f45524332305072657365744d696e7465725061757365723a206d75737420686160008201527f7665206d696e74657220726f6c6520746f206d696e7400000000000000000000602082015250565b7f45524332303a206275726e20616d6f756e74206578636565647320616c6c6f7760008201527f616e636500000000000000000000000000000000000000000000000000000000602082015250565b7f45524332303a206275726e2066726f6d20746865207a65726f2061646472657360008201527f7300000000000000000000000000000000000000000000000000000000000000602082015250565b7f4552433230576974685065726d69743a20494e56414c49445f5349474e41545560008201527f5245000000000000000000000000000000000000000000000000000000000000602082015250565b7f45524332303a207472616e736665722066726f6d20746865207a65726f20616460008201527f6472657373000000000000000000000000000000000000000000000000000000602082015250565b7f45524332303a20617070726f76652066726f6d20746865207a65726f2061646460008201527f7265737300000000000000000000000000000000000000000000000000000000602082015250565b7f45524332305072657365744d696e7465725061757365723a206d75737420686160008201527f76652070617573657220726f6c6520746f207061757365000000000000000000602082015250565b7f416363657373436f6e74726f6c3a206163636f756e7420000000000000000000600082015250565b7f45524332303a2064656372656173656420616c6c6f77616e63652062656c6f7760008201527f207a65726f000000000000000000000000000000000000000000000000000000602082015250565b7f206973206d697373696e6720726f6c6520000000000000000000000000000000600082015250565b7f416363657373436f6e74726f6c3a2063616e206f6e6c792072656e6f756e636560008201527f20726f6c657320666f722073656c660000000000000000000000000000000000602082015250565b7f45524332303a206d696e7420746f20746865207a65726f206164647265737300600082015250565b7f45524332305061757361626c653a20746f6b656e207472616e7366657220776860008201527f696c652070617573656400000000000000000000000000000000000000000000602082015250565b6139f8816131db565b8114613a0357600080fd5b50565b613a0f816131f9565b8114613a1a57600080fd5b50565b613a2681613203565b8114613a3157600080fd5b50565b613a3d8161324f565b8114613a4857600080fd5b50565b613a5481613259565b8114613a5f57600080fd5b5056fea2646970667358221220396c155f907f6a02c808603e879514fdbf898ba46d61eef7caa1c7cbb4add23e64736f6c63430008040033",
  "linkReferences": {},
  "deployedLinkReferences": {}
}